{
  "_format": "hh-sol-artifact-1",
  "contractName": "Airdrop",
  "sourceName": "contracts/Airdrop.sol",
  "abi": [
    {
      "inputs": [
        {
          "internalType": "address",
          "name": "_tokenAddress",
          "type": "address"
        },
        {
          "internalType": "bytes32",
          "name": "_merkleRoot",
          "type": "bytes32"
        },
        {
          "internalType": "address",
          "name": "_bayc",
          "type": "address"
        }
      ],
      "stateMutability": "nonpayable",
      "type": "constructor"
    },
    {
      "inputs": [],
      "name": "AddressZerodetected",
      "type": "error"
    },
    {
      "inputs": [],
      "name": "NOTBAYCHOLDER",
      "type": "error"
    },
    {
      "inputs": [],
      "name": "NotOwner",
      "type": "error"
    },
    {
      "inputs": [],
      "name": "TokenHasBeenClaimed",
      "type": "error"
    },
    {
      "anonymous": false,
      "inputs": [
        {
          "indexed": true,
          "internalType": "address",
          "name": "_user",
          "type": "address"
        },
        {
          "indexed": false,
          "internalType": "uint256",
          "name": "_amount",
          "type": "uint256"
        }
      ],
      "name": "AirdropClaimed",
      "type": "event"
    },
    {
      "anonymous": false,
      "inputs": [
        {
          "indexed": false,
          "internalType": "uint256",
          "name": "_tokenBalance",
          "type": "uint256"
        },
        {
          "indexed": false,
          "internalType": "string",
          "name": "successMessage",
          "type": "string"
        }
      ],
      "name": "AirdropWithdrawn",
      "type": "event"
    },
    {
      "anonymous": false,
      "inputs": [
        {
          "indexed": false,
          "internalType": "bytes32",
          "name": "leaf",
          "type": "bytes32"
        },
        {
          "indexed": false,
          "internalType": "bool",
          "name": "proofValid",
          "type": "bool"
        }
      ],
      "name": "Debug",
      "type": "event"
    },
    {
      "inputs": [],
      "name": "bayc",
      "outputs": [
        {
          "internalType": "address",
          "name": "",
          "type": "address"
        }
      ],
      "stateMutability": "view",
      "type": "function"
    },
    {
      "inputs": [
        {
          "internalType": "uint256",
          "name": "_amount",
          "type": "uint256"
        },
        {
          "internalType": "bytes32[]",
          "name": "_merkleProof",
          "type": "bytes32[]"
        }
      ],
      "name": "claimAirdrop",
      "outputs": [],
      "stateMutability": "nonpayable",
      "type": "function"
    },
    {
      "inputs": [],
      "name": "merkleRoot",
      "outputs": [
        {
          "internalType": "bytes32",
          "name": "",
          "type": "bytes32"
        }
      ],
      "stateMutability": "view",
      "type": "function"
    },
    {
      "inputs": [],
      "name": "owner",
      "outputs": [
        {
          "internalType": "address",
          "name": "",
          "type": "address"
        }
      ],
      "stateMutability": "view",
      "type": "function"
    },
    {
      "inputs": [
        {
          "internalType": "address",
          "name": "_user",
          "type": "address"
        }
      ],
      "name": "ownsNFT",
      "outputs": [
        {
          "internalType": "bool",
          "name": "",
          "type": "bool"
        }
      ],
      "stateMutability": "view",
      "type": "function"
    },
    {
      "inputs": [],
      "name": "tokenAddress",
      "outputs": [
        {
          "internalType": "address",
          "name": "",
          "type": "address"
        }
      ],
      "stateMutability": "view",
      "type": "function"
    },
    {
      "inputs": [
        {
          "internalType": "bytes32",
          "name": "_merkleroot",
          "type": "bytes32"
        }
      ],
      "name": "updateMerkleroot",
      "outputs": [],
      "stateMutability": "nonpayable",
      "type": "function"
    },
    {
      "inputs": [],
      "name": "withdrawRemainingToken",
      "outputs": [],
      "stateMutability": "nonpayable",
      "type": "function"
    }
  ],
  "bytecode": "0x60806040523480156200001157600080fd5b5060405162001297380380620012978339818101604052810190620000379190620001af565b82600160006101000a81548173ffffffffffffffffffffffffffffffffffffffff021916908373ffffffffffffffffffffffffffffffffffffffff1602179055508160008190555080600360006101000a81548173ffffffffffffffffffffffffffffffffffffffff021916908373ffffffffffffffffffffffffffffffffffffffff16021790555033600260006101000a81548173ffffffffffffffffffffffffffffffffffffffff021916908373ffffffffffffffffffffffffffffffffffffffff1602179055505050506200020b565b600080fd5b600073ffffffffffffffffffffffffffffffffffffffff82169050919050565b60006200013c826200010f565b9050919050565b6200014e816200012f565b81146200015a57600080fd5b50565b6000815190506200016e8162000143565b92915050565b6000819050919050565b620001898162000174565b81146200019557600080fd5b50565b600081519050620001a9816200017e565b92915050565b600080600060608486031215620001cb57620001ca6200010a565b5b6000620001db868287016200015d565b9350506020620001ee8682870162000198565b925050604062000201868287016200015d565b9150509250925092565b61107c806200021b6000396000f3fe608060405234801561001057600080fd5b50600436106100885760003560e01c80637c480cb41161005b5780637c480cb4146101155780638da5cb5b1461011f5780639d76ea581461013d578063d5dbd64f1461015b57610088565b80630bcae1ac1461008d5780632eb4a7ab146100a957806369aa7c51146100c75780637685807d146100f7575b600080fd5b6100a760048036038101906100a29190610a58565b610177565b005b6100b1610524565b6040516100be9190610ad1565b60405180910390f35b6100e160048036038101906100dc9190610b4a565b61052a565b6040516100ee9190610b92565b60405180910390f35b6100ff6105d7565b60405161010c9190610bbc565b60405180910390f35b61011d6105fd565b005b610127610823565b6040516101349190610bbc565b60405180910390f35b610145610849565b6040516101529190610bbc565b60405180910390f35b61017560048036038101906101709190610c03565b61086f565b005b600073ffffffffffffffffffffffffffffffffffffffff163373ffffffffffffffffffffffffffffffffffffffff16036101dd576040517f52dc11a000000000000000000000000000000000000000000000000000000000815260040160405180910390fd5b600460003373ffffffffffffffffffffffffffffffffffffffff1673ffffffffffffffffffffffffffffffffffffffff16815260200190815260200160002060009054906101000a900460ff1615610261576040517f3c4ac36e00000000000000000000000000000000000000000000000000000000815260040160405180910390fd5b61026a3361052a565b6102a0576040517fd41e68b600000000000000000000000000000000000000000000000000000000815260040160405180910390fd5b600033846040516020016102b5929190610c99565b604051602081830303815290604052805190602001209050600061031d848480806020026020016040519081016040528093929190818152602001838360200280828437600081840152601f19601f8201169050808301925050505050505060005484610881565b90507fcfb05a2778bcc543ac211a269b9e91af182047a9c0de5f1d4d14efd0b88317828282604051610350929190610cc5565b60405180910390a180610398576040517f08c379a000000000000000000000000000000000000000000000000000000000815260040161038f90610d4b565b60405180910390fd5b6001600460003373ffffffffffffffffffffffffffffffffffffffff1673ffffffffffffffffffffffffffffffffffffffff16815260200190815260200160002060006101000a81548160ff021916908315150217905550600160009054906101000a900473ffffffffffffffffffffffffffffffffffffffff1673ffffffffffffffffffffffffffffffffffffffff1663a9059cbb33876040518363ffffffff1660e01b815260040161044d929190610d7a565b6020604051808303816000875af115801561046c573d6000803e3d6000fd5b505050506040513d601f19601f820116820180604052508101906104909190610dcf565b6104cf576040517f08c379a00000000000000000000000000000000000000000000000000000000081526004016104c690610e48565b60405180910390fd5b3373ffffffffffffffffffffffffffffffffffffffff167f650e45f04ef8a0c267b2f78d983913f69ae3a353b2b32de5429307522be0ab55866040516105159190610e68565b60405180910390a25050505050565b60005481565b600080600360009054906101000a900473ffffffffffffffffffffffffffffffffffffffff16905060008173ffffffffffffffffffffffffffffffffffffffff166370a08231856040518263ffffffff1660e01b815260040161058d9190610bbc565b602060405180830381865afa1580156105aa573d6000803e3d6000fd5b505050506040513d601f19601f820116820180604052508101906105ce9190610e98565b11915050919050565b600360009054906101000a900473ffffffffffffffffffffffffffffffffffffffff1681565b610605610898565b6000600160009054906101000a900473ffffffffffffffffffffffffffffffffffffffff1673ffffffffffffffffffffffffffffffffffffffff166370a08231306040518263ffffffff1660e01b81526004016106629190610bbc565b602060405180830381865afa15801561067f573d6000803e3d6000fd5b505050506040513d601f19601f820116820180604052508101906106a39190610e98565b9050600081116106e8576040517f08c379a00000000000000000000000000000000000000000000000000000000081526004016106df90610f11565b60405180910390fd5b600160009054906101000a900473ffffffffffffffffffffffffffffffffffffffff1673ffffffffffffffffffffffffffffffffffffffff1663a9059cbb600260009054906101000a900473ffffffffffffffffffffffffffffffffffffffff16836040518363ffffffff1660e01b8152600401610767929190610d7a565b6020604051808303816000875af1158015610786573d6000803e3d6000fd5b505050506040513d601f19601f820116820180604052508101906107aa9190610dcf565b6107e9576040517f08c379a00000000000000000000000000000000000000000000000000000000081526004016107e090610f7d565b60405180910390fd5b7f0ea13bb56078e17d19d2cd771fafed312d1f283c03635681d8dc4534798067e3816040516108189190610fe9565b60405180910390a150565b600260009054906101000a900473ffffffffffffffffffffffffffffffffffffffff1681565b600160009054906101000a900473ffffffffffffffffffffffffffffffffffffffff1681565b610877610898565b8060008190555050565b60008261088e8584610921565b1490509392505050565b600260009054906101000a900473ffffffffffffffffffffffffffffffffffffffff1673ffffffffffffffffffffffffffffffffffffffff163373ffffffffffffffffffffffffffffffffffffffff161461091f576040517f30cd747100000000000000000000000000000000000000000000000000000000815260040160405180910390fd5b565b60008082905060005b8451811015610966576109578286838151811061094a57610949611017565b5b6020026020010151610971565b9150808060010191505061092a565b508091505092915050565b600081831061098957610984828461099c565b610994565b610993838361099c565b5b905092915050565b600082600052816020526040600020905092915050565b600080fd5b600080fd5b6000819050919050565b6109d0816109bd565b81146109db57600080fd5b50565b6000813590506109ed816109c7565b92915050565b600080fd5b600080fd5b600080fd5b60008083601f840112610a1857610a176109f3565b5b8235905067ffffffffffffffff811115610a3557610a346109f8565b5b602083019150836020820283011115610a5157610a506109fd565b5b9250929050565b600080600060408486031215610a7157610a706109b3565b5b6000610a7f868287016109de565b935050602084013567ffffffffffffffff811115610aa057610a9f6109b8565b5b610aac86828701610a02565b92509250509250925092565b6000819050919050565b610acb81610ab8565b82525050565b6000602082019050610ae66000830184610ac2565b92915050565b600073ffffffffffffffffffffffffffffffffffffffff82169050919050565b6000610b1782610aec565b9050919050565b610b2781610b0c565b8114610b3257600080fd5b50565b600081359050610b4481610b1e565b92915050565b600060208284031215610b6057610b5f6109b3565b5b6000610b6e84828501610b35565b91505092915050565b60008115159050919050565b610b8c81610b77565b82525050565b6000602082019050610ba76000830184610b83565b92915050565b610bb681610b0c565b82525050565b6000602082019050610bd16000830184610bad565b92915050565b610be081610ab8565b8114610beb57600080fd5b50565b600081359050610bfd81610bd7565b92915050565b600060208284031215610c1957610c186109b3565b5b6000610c2784828501610bee565b91505092915050565b60008160601b9050919050565b6000610c4882610c30565b9050919050565b6000610c5a82610c3d565b9050919050565b610c72610c6d82610b0c565b610c4f565b82525050565b6000819050919050565b610c93610c8e826109bd565b610c78565b82525050565b6000610ca58285610c61565b601482019150610cb58284610c82565b6020820191508190509392505050565b6000604082019050610cda6000830185610ac2565b610ce76020830184610b83565b9392505050565b600082825260208201905092915050565b7f496e76616c6964204d65726b6c652070726f6f66000000000000000000000000600082015250565b6000610d35601483610cee565b9150610d4082610cff565b602082019050919050565b60006020820190508181036000830152610d6481610d28565b9050919050565b610d74816109bd565b82525050565b6000604082019050610d8f6000830185610bad565b610d9c6020830184610d6b565b9392505050565b610dac81610b77565b8114610db757600080fd5b50565b600081519050610dc981610da3565b92915050565b600060208284031215610de557610de46109b3565b5b6000610df384828501610dba565b91505092915050565b7f546f6b656e207472616e73666572206661696c65640000000000000000000000600082015250565b6000610e32601583610cee565b9150610e3d82610dfc565b602082019050919050565b60006020820190508181036000830152610e6181610e25565b9050919050565b6000602082019050610e7d6000830184610d6b565b92915050565b600081519050610e92816109c7565b92915050565b600060208284031215610eae57610ead6109b3565b5b6000610ebc84828501610e83565b91505092915050565b7f596f752068617665206e6f7420746f6b656e206c656674000000000000000000600082015250565b6000610efb601783610cee565b9150610f0682610ec5565b602082019050919050565b60006020820190508181036000830152610f2a81610eee565b9050919050565b7f5472616e73616374696f6e204661696c00000000000000000000000000000000600082015250565b6000610f67601083610cee565b9150610f7282610f31565b602082019050919050565b60006020820190508181036000830152610f9681610f5a565b9050919050565b7f5375636365737366756c00000000000000000000000000000000000000000000600082015250565b6000610fd3600a83610cee565b9150610fde82610f9d565b602082019050919050565b6000604082019050610ffe6000830184610d6b565b818103602083015261100f81610fc6565b905092915050565b7f4e487b7100000000000000000000000000000000000000000000000000000000600052603260045260246000fdfea264697066735822122088cf458432f7fa51c9901b61da61e3732d18919268b80270cd202ade76130e2264736f6c63430008180033",
  "linkReferences": {},
  "deployedLinkReferences": {}
}